:020000040800F2
:1000000000500020B10200080000000000000000C5
:1000100000000000000000000000000000000000E0
:1000200000000000000000000000000000000000D0
:1000300000000000000000000000000000000000C0
:1000400000000000000000000000000000000000B0
:1000500000000000000000000000000000000000A0
:100060000000000000000000000000000000000090
:100070000000000000000000000000000000000080
:100080000000000000000000000000000000000070
:10009000050600080000000000000000000000004D
:1000A0000000000000000000000000000000000050
:1000B0000000000000000000000000000000000040
:1000C0000000000000000000000000000000000030
:1000D0000000000000000000000000000000000020
:1000E0000000000000000000000000000000000010
:1000F0000000000000000000000000000000000000
:1001000000000000000000000000000000000000EF
:1001100000000000000000000000000000000000DF
:1001200000000000000000000000000000000000CF
:100130004721484A70B51346116102E05A695605D5
:1001400002D45A691206F9D5424B5A6915060AD4E7
:10015000452000F059F9332000F056F9BDE8704011
:100160000A2000F051B919461A6842F480721A60E8
:100170004B69DC07FCD54200D2B242F00102354B9C
:100180000A6102E05A69510502D45A699007F9D50B
:10019000304B5A6912F002024DD00022B9265A6142
:1001A0001C465A699B69236843F480632360636932
:1001B0005A06FCD52569302000F026F9782000F099
:1001C00023F9C5F3031009288CBF3730303005F010
:1001D0000F0500F019F9092D8CBF05F1370005F165
:1001E000300000F011F90A2000F00EF9013EDAD1DA
:1001F000184B1A461968196053695B06FCD51469D7
:10020000302000F001F9782000F0FEF8C4F303106C
:1002100009288CBF3730303000F0F6F804F00F00BA
:1002200009288CBF3730303000F0EEF8BDE8704060
:100230000A2000F0E9B85A6145205A699B6900F02C
:10024000E3F8342000F0E0F8BDE870400A2000F048
:10025000DBB800BF00580040094A00EBC0039068BB
:10026000C01A002804DD064A93688342FCD2704716
:100270001368DB03FCD500F1FF1000F57F40F2E7C7
:1002800010E000E010B40F24072984BF04300839BF
:1002900042EA8302890003688C4023EA0403036076
:1002A000036802FA01F1194310BC0160704700BFF6
:1002B00010B50D490D4C641A0AD00D4A134614446A
:1002C0001A780133D2B29C420A7001F10101F7D1D0
:1002D0000849094B994205D000201A4601338B4248
:1002E0001070FAD100F04CFC00000020000000204B
:1002F000660E00081101002000000020104B10B411
:100300001A461C6844F480741C605369DC07FCD5F1
:100310004000C0B201F001010843094B106102E046
:100320005A69520502D45A699107F9D50022044B43
:1003300010BC58695A615A69C0F340009B69704704
:1003400000580040074A1346106102E05A695205FE
:1003500002D45A691106F9D5024B5869C0F3C0108E
:10036000704700BF00580040064983020A460868EB
:1003700003F4806303430B6053695B06FCD510698B
:10038000704700BF0058004080210E4A08B5134650
:10039000116102E05A69520502D45A691106F9D571
:1003A000084B5B691B060AD4452000F02DF832206B
:1003B00000F02AF8BDE808400A2000F025B8BDE8A2
:1003C0000840B5E60058004009288CBF373030306F
:1003D000C0B200F019B800BF094B19785A789142A1
:1003E0000AD0197807484A1CD2B21A701A78405CB1
:1003F00002F03F021A7070474FF0FF30704700BFA5
:1004000002000020D000002030B4104A9378D57844
:10041000D47891785B1BDBB28C4203F13F0136BF8D
:1004200003F1FF33CBB2DBB2002BEFD0012300246A
:100430001371D178064DCB18DBB2D370D3786854E2
:1004400003F03F03D370147130BC704702000020EA
:1004500090000020F0B44FF48027C0264FF48015A0
:1004600000214FF406440E480E4BC26942F40002CC
:10047000C2615F619A680C483A439A601A683A43CD
:100480001A600A4B0A4AC3600A4B82F8146315606B
:10049000A3F85010A3F84410A3F84040F0BC7047F4
:1004A000001002400004014000ED00E00005FA05E4
:1004B00000E100E0005C00408A4228BF0A46082AAA
:1004C000114628BF0821F0B4184CD2B2227023780C
:1004D000174F5B1ADBB22370164B4A1C38609980A9
:1004E000530813D001465608134D013EB6B23544A9
:1004F000124BAD001C4631F8022B043392B2AB42D2
:100500002260F7D1013600EB46063E600C4AF0BC93
:10051000138823F0C0031B051B0D83F0300343F445
:10052000004343F080031380704700BF1001002098
:100530008C00002000600040411800100061004065
:10054000005C00402A4B1A79012A2ED0DA7899787B
:10055000521A92B24AB3F0B49878D978884225D822
:10056000202A28BF20222349541E8A84A4B222486C
:10057000224E9D78A11E6A1CD2B29A709A78755D3F
:1005800002F03F0289B29A70ECB905601C4AF0BCD7
:10059000138923F0C0031B051B0D83F0300343F4C4
:1005A000004343F08003138170477047403292B29A
:1005B000202A114628BF20210E484C1E8184A4B257
:1005C000002AD4D1E2E702469F78012C07F101000E
:1005D000C0B298709878F75D00F03F0045EA0725B3
:1005E000987042F8045BD1D00C461046C1E700BFBA
:1005F0000200002000600040806100409000002068
:10060000005C0040B44B2DE9F047B3F844309B0543
:1006100009D5B24B5B79012B00F0B0804FF6FF5249
:10062000AD4BA3F84420AC4BB3F84420D70544BFEE
:100630004FF6FF62A3F84420A74AB2F844301E04E4
:100640003AD4A54AB2F844305B0533D54BF2A02327
:10065000002180204FF0400A4FF4805948F2A168F1
:100660004FF4887E4BF2A20CC0274FF480764FF4F3
:1006700080454FF406441380994B18809980A3F865
:1006800008A0A3F80C90A2F80480A3F810E09982C7
:1006900019839983A2F808C01F8499841E859D85BB
:1006A0008E4BA2F84040A2F85010A2F84C005971AD
:1006B000A2F84410BDE8F087B2F8443013F00F01FF
:1006C0004BD113881D0461D4834B1A881006B8D50A
:1006D0004FF40241814A1980917941B100240120EF
:1006E000917941F08001A3F84C10947150717D4ACA
:1006F0001378002BA5D013781178082B28BF082376
:10070000774C581CC91A45089BB2C9B2013D1170FB
:10071000A3804308EDB212D0734F744C3E682C4452
:100720003146734BA400184631F8022B043392B2C1
:10073000A3420260F7D1013506EB45053D60664AEC
:10074000138823F0C0031B051B0D83F0300343F413
:10075000004343F08003138073E702297FF471AFF5
:10076000138919044ED45C4B1A8912067FF569AFC0
:1007700048F202021A81FFF7E5FE62E7FFF7E2FEA8
:100780004FF6FF52544BA3F844204CE74FF420732C
:10079000138013881C0527D5564C60785F28C3B298
:1007A00000F000816CD8062B00F01A81092B00F0B4
:1007B000A780052B18D14B4B4B4D19701878296029
:1007C000474DC0B21870A9801388444923F0C00374
:1007D0001B051B0D83F0300343F4004343F08003FB
:1007E00013802379DBB28B713B4A138823F0F0032B
:1007F0009B049B0C83F4405343F4004343F0800379
:10080000138061E78221364B11819B8D03F07F03BA
:100810005C1EE4B20BB33849304B384F5D7851F869
:10082000046B6A1CD2B25A705878A21E00F03F00C6
:10083000C6F3072CD2B27E55587074B15D78012C86
:1008400005F10100C0B25870587807F805C000F0F3
:100850003F00587001D01446E0E71F4A138923F087
:10086000F0039B049B0C83F4405343F4004343F098
:1008700080031381184B1A8912067FF5E2AE77E7E1
:1008800003F16B02D2B20F2AAED8953B0F2BABD837
:1008900001A252F823F000BF31090008E90700085F
:1008A000E9070008E9070008E9070008010900084E
:1008B000E9070008E9070008E9070008E907000858
:1008C000E9070008E907000801090008E90700082E
:1008D000E907000801090008005C00400200002050
:1008E00000600040100100208C0000204118001022
:1008F000006100408060004000620040D0000020A5
:100900000023924A924D13701178924C9248C9B2CA
:100910002B601170A380038823F0C0031B051B0DFF
:1009200083F0300343F4004343F0800303805BE72C
:1009300042F21851894A93889BB28B4200F0E780BB
:100940009388928940F2067192B2022A28BF02224D
:100950007E4CD0B220709BB28B422178804BA1EBB1
:100960000001C9B27A487B4D21706FD003F1AC040D
:10097000511C0460AA804A0806D0B3F8AC2079491B
:1009800092B2AE3303600A60734A138823F0C00347
:100990001B051B0D83F0300343F4004343F0800339
:1009A000138021E7A289694C92B2022A28BF022251
:1009B000D0B2207021786A4B091AC9B26448654DDB
:1009C000217003F1A004511C0460AA804A08DBD006
:1009D000B3F8A020634992B2A23303600A60D3E760
:1009E0006279022AD3B268D0032B3ED0012B87D183
:1009F0005A4B56499B89564F9BB2122B28BF122344
:100A0000082B1A4628BF0822DBB20B700B78501C4B
:100A10009B1ADBB20B70524E4E4B4508013D3E60B7
:100A20009A804308ADB2AFD031464F4C4D4B2C4469
:100A3000A400184631F8022B043392B29C420260A3
:100A4000F7D1013506EB45053D609DE703F1A804AC
:100A5000511C0460AA804A0896D0B3F8A8204149E6
:100A600092B2AA3303600A608EE72379032B3FF624
:100A7000BBAEDFE803F01A120A02384B1C219A8938
:100A80003A4892B2FFF718FDAEE6344B1C219A8922
:100A9000374892B2FFF710FDA6E6304B26219A891F
:100AA000344892B2FFF708FD9EE62C4B04219A8948
:100AB000314892B2FFF700FD96E6A38923499BB225
:100AC000272B28BF2723082B1A4628BF0822DBB272
:100AD0000B700B78501C9B1ADBB20B701C4F1D4B1C
:100AE000264E4508013D3E609A804308ADB23FF472
:100AF0004BAF31461C4C1B4B2C44A400184631F81C
:100B0000022B043392B2A3420260F7D199E7928993
:100B10000E4C92B2022A28BF0222D0B22070217855
:100B20000F4B091AC9B20A480A4D217003F1A404F7
:100B3000511C0460AA804A083FF426AFB3F8A420F1
:100B4000084992B2A63303600A601DE71001002035
:100B50008C00002000600040005C0040806000408D
:100B6000B80D000800610040411800103C0E00085C
:100B7000200E0008F80D0008F40D0008CC0D000848
:100B8000F8B51424854B864A1946864804605A6095
:100B90001A6842F480321A600B689C03FCD50B681B
:100BA0007E4A43F080730B6013689801FCD551684E
:100BB0007A4B41F0020151605A681107FCD56FF081
:100BC0007F4001269969784A41F01D019961D969F0
:100BD000154641F48001D96150601660FFF73AFC78
:100BE0007249734B4868734A20F470004860486843
:100BF0004FF0200C40F400104860A0272120196815
:100C0000144621F00F011960196841F004011960C0
:100C1000196821F0F0011960196841F0400119606C
:100C2000D3F8041421F47061C3F80414D3F8041445
:100C300041F46061C3F80414D3F8041421F4704142
:100C4000C3F80414D3F8041441F46041C3F8041445
:100C5000C2F804C0D761106216605020FFF7D4FBC1
:100C60007220FFF7D1FB6520FFF7CEFB7320FFF763
:100C7000CBFB7320FFF7C8FB2020FFF7C5FB6B20E1
:100C8000FFF7C2FB6520FFF7BFFB7920FFF7BCFB36
:100C90000A20FFF7B9FBFFF79FFB0130FBD0236869
:100CA00043F4807323606369DA07FCD5282323614A
:100CB00002E063695F0502D463699B07F9D5636944
:100CC00013F0020345D163616369A369236843F4A8
:100CD000807323606369DA07FCD5BA23236102E0DD
:100CE00063695F0502D463699B07F9D5636913F0F3
:100CF000020342D00022802362616269A2692361FB
:100D000002E06369580502D463691E06F9D5636978
:100D100019063FD44520FFF777FB3220FFF774FB1D
:100D20000A20FFF771FB236843F400732360A9686E
:100D3000A1F56172002A03DDAB689A42FCD98CE709
:100D40002B68DA03FCD56FF4617301F180721A44E9
:100D5000F2E70022802362616269A269236102E0F6
:100D60006369580502D463691E06F9D563691906DB
:100D7000D0D51420FFF7DCF9D5E76361452063691E
:100D8000A369FFF741FB3120FFF73EFB0A20FFF785
:100D90003BFBC8E75D20FFF7CBF9C4E7001002403A
:100DA00000A41D000020024010E000E000100140FF
:080DB00000080140005800405A
:100DB80012011001FF000008861A23756202000262
:100DC8000001000009022700010100803109040028
:100DD8000003FF0102000705820220000007050248
:100DE800022000000705810308000100040309042C
:100DF8002603530054004D006900630072006F0021
:100E080065006C0065006300740072006F006E007E
:100E180069006300730000001C0355005300420082
:100E280032002E0030002D0053006500720069006A
:100E380061006C001C0355005300420032002E0074
:100E480030002D00530065007200690061006C00DD
:0E0E580031000000C3000000FFEE00000000AB
:0400000508000000EF
:00000001FF
